:020000040800F2
:10000000304B002099010008632D0008412A0008A8
:10001000612D000855100008EF31000800000000B5
:1000200000000000000000000000000001010008C6
:10003000BB1100080000000045010008992D0008D0
:10004000B3010008B3010008B3010008B3010008C0
:10005000B3010008B3010008B3010008C51100088E
:10006000B3010008B3010008B3010008B3010008A0
:10007000B3010008B3010008B3010008B301000890
:10008000B3010008B3010008B3010008B301000880
:10009000B3010008B3010008B3010008B301000870
:1000A000B3010008B3010008B3010008B301000860
:1000B000B3010008B3010008292E0008B3010008AD
:1000C000B3010008B3010008B3010008B301000840
:1000D000B3010008B3010008B3010008B301000830
:1000E000BD110008B3010008B3010008DFF80CD00F
:1000F00000F0BEFC004800479D3B0008304B00204C
:10010000224B19680868B0E8F00F80F30988BFF344
:100110006F8F4FF0000080F311884EF00D0E704786
:100120000000000006480068006880F3088862B696
:1001300061B6BFF34F8FBFF36F8F00DF00BF00BF0B
:1001400008ED00E0EFF30980BFF36F8F0F4B1A68E3
:1001500020E9F00F106008B54FF0BF0080F3118860
:10016000BFF34F8FBFF36F8F04F056FA4FF00000CC
:1001700080F31188BDE8084019680868B0E8F00FFE
:1001800080F30988BFF36F8F704700BF2400002001
:10019000EFF3058070470000064880470648004797
:1001A000FEE7FEE7FEE7FEE7FEE7FEE7FEE7FEE727
:1001B000FEE7FEE7252E0008ED000008202A04DBFC
:1001C000203A21FA02F00021704721FA02F3D040D0
:1001D000C2F120029140084319467047D2B201E0B3
:1001E00000F8012B491EFBD270470022F6E710B53C
:1001F00013460A4604461946FFF7F0FF204610BD95
:10020000421C10F8011B0029FBD1801A7047000026
:100210000FB400B58DB010A909900B9000914FF06C
:10022000FF300A9000200C90054806900548079082
:100230006A4609A80F9900F0FDF90DB05DF814FBAE
:10024000510600086F0600082DE9FF5F1D464FF0BC
:10025000FF3BD5E9014691465F464FF00008A9698A
:100260007F1C01988847296A824688470028F6D172
:10027000BAF1FF3F0CD024F4C064002E19DD6006F3
:1002800014D5BAF12B0F09D0BAF12D0F0ED103E01E
:10029000584604B0BDE8F09F44F48064A9697F1C0F
:1002A00001988847761E8246002E02DDBAF1300F93
:1002B00003D0B9F1000F26D032E0A969761E44F4CC
:1002C00000747F1C019888478246002E05DDBAF134
:1002D000780F06D0BAF1580F03D0B9F1000F10D043
:1002E0001EE0B9F1000F02D0B9F1100F18D1A969C1
:1002F000761E24F400747F1C0198884782461020E3
:1003000002E0082000E00A20814609E008FB090815
:10031000A969761E44F400747F1C019888478246C0
:10032000002E05DD4946504600F06FF90028EDDA51
:10033000E96901988847A00502D46FF00100A8E799
:10034000E00725D1600613D5600502D5C8F100008D
:1003500000E0404629680A1D2A600968220501D587
:10036000087015E0220701D5088011E008600FE051
:100370002868011D29600068210502D580F80080E9
:1003800006E0210702D5A0F8008001E0C0F8008057
:1003900038467EE7F0B480EA0102D40F4200B2EBA7
:1003A000410F02D20246084611464A0042D0C30D10
:1003B000DDB2C1F3C752AD1A202D35DAC1F31601F3
:1003C00041F4000204B15242C5F1200602FA06F1DE
:1003D0002A411044B3EBD05F23D0C4B1012DA0EB70
:1003E000C35009DCF0BC4FF0004202EAC352DBB25A
:1003F00000F5000000F055B9400000F1807000EBFE
:10040000C350A0F1807040EAD170490009E049086A
:1004100041EAC071A0EBC35000F50000400800EBBA
:10042000C350F0BC00F034B96142012202EB41013B
:10043000001BF6E7F0BC704781F00041AAE780F0AE
:100440000040A7E780EA010210B502F00043400037
:1004500022D04A001FD0010E01EB1261C0F35600FA
:10046000C2F3560240F4000042F40002A0FB022056
:1004700000047F39140400D0401C50EA124001D41B
:100480004000491EC2B20C0604EBD010401C4008CC
:10049000802A02D003E0002010BD20F001000029D6
:1004A00000DA0020184310BD30B480EA010202F0E7
:1004B000004530F0004221F0004013D090B1C30D50
:1004C000D40DC2F31601C0F31600E41A41F4000182
:1004D00040F400027D34914201D3641C00E04900E5
:1004E000002C02DA30BC002070474FF400000023DB
:1004F000914201D3891A034340084FEA4101F7D1E1
:1005000051B1914202D14FF0004105E002D24FF0CB
:10051000010101E06FF0010103EBC450284430BC3D
:1005200000F0B6B896230022114600F0BAB820F0C9
:100530000040C10DC0F3160040F400007F2901DA2D
:1005400000207047962903DCC1F19601C84070472E
:1005500096398840704700F0004230F000400AD0E1
:10056000C10D01F56071C0F3160042EA0151C208E5
:1005700040071143704700200146704730B50B46D5
:10058000014600202022012409E021FA02F59D42C3
:1005900005D303FA02F5491B04FA02F52844151E97
:1005A000A2F10102F1DC30BD2DE9F05F054600202B
:1005B00092469B4688460646814640241BE02846D4
:1005C000414647462246FFF7F9FD53465A46C01AB0
:1005D000914110D311461846224600F05BFA2D1ABD
:1005E00067EB01084F4622460120002100F052FA35
:1005F00017EB00094E41201EA4F10104DFDC484640
:1006000031462A464346BDE8F09F3A2800D23038AA
:1006100020F02002412A01D3A2F13700884201D301
:100620004FF0FF30704700000268114413780160FA
:1006300018467047D1600449516104491162002194
:100640001161114600F04CBA29060008D70A0008CB
:10065000426842B1016811F8013B23B1521EC0E962
:100660000012184670470121C160881E7047426819
:100670005AB1C368016843B983688B4205D0491EEB
:10068000521CC0E90012002070474FF0FF30704745
:100690000029A8BF7047401C490008BF20F0010096
:1006A000704710B4B0FA80FC00FA0CF050EA010474
:1006B00004BF10BC704749B1CCF1200421FA04F406
:1006C00011FA0CF118BF012121430843A3EB0C01DF
:1006D000CB1D4FEA00614FEA102042BF002010BC42
:1006E000704700EBC35010440029A4BF10BC7047F2
:1006F000401C490008BF20F0010010BC70472DE9E4
:10070000FE4F804681EA0300C00F0C46009021F0A6
:10071000004123F00045B8EB0200A94105D2404654
:10072000214690461C460B46024623F000401043EB
:1007300047D0270DC7F30A00C3F30A510290401AAD
:10074000019040286BDAC3F3130040F4801B00983B
:10075000924620B10023D2EB030A63EB0B0B019806
:100760005946C0F14002504600F094F906460D4645
:1007700050465946019A00F09CF910EB080061417F
:10078000002487EA115284EAE7731A4340D0009AA2
:1007900062B3019A012A4FEA075215DC001B61EB94
:1007A00002014FF0004202EA0752CDE90042001C6C
:1007B00041F5801132462B4600F037FB03B0BDE80F
:1007C000F08F40462146F9E7001B61EB0201001C57
:1007D00041F5801300185B412018A2F5001747EB84
:1007E000030140EAD570B6196D4111E06D084FEA7A
:1007F000360645EAC0754FEA0752001B61EB02015D
:10080000001C41F5801149084FEA300000195141A0
:1008100032462B4603B0BDE8F04F00F0F7BA00981F
:10082000012240000023D0EB020263EBE07300984A
:1008300021464FEAE074B8EB000061EB0401E9E700
:1008400083F000435BE781F0004158E72DE9FE4F5C
:1008500081EA030404F0004421F0004100944FF0C9
:10086000000B23F0004350EA01045ED052EA030477
:100870005BD0C3F30A54C1F30A552C44A4F2F334F9
:100880000194A0FB0254C1F3130141F48011C3F39E
:10089000130343F4801301FB024400FB034E840A5C
:1008A000970A44EA815447EA8357A4FB07680295F4
:1008B0008D0A05FB07854FEA932C04FB0C54270592
:1008C000029D4FEA065847EA1637B5EB08056EEB6E
:1008D000070C870E920E47EA811742EA8312A7FBA4
:1008E0000201B6EB0B0164EB00042B0D43EA0C3361
:1008F0005E1844EB1C50DA465146E7FB0201C5F393
:1009000013044FEA0B3343EA14534FEA0432019CB9
:1009100043EA0603A4F10C040294009CCDE900B460
:1009200000F083FA03B0BDE8F08F00200146F9E73C
:100930002DE9F04D81EA030404F0004B21F000455D
:1009400014464FF0000A23F0004150EA050220D07F
:1009500054EA01021DD0C5F30A570246C5F313033A
:10096000C1F31300C1F30A5640F4801543F4801319
:10097000A7EB0608101BD64608F2FD3873EB0500FE
:1009800002D308F1010801E092185B41B8F1000FB1
:1009900003DA00200146BDE8F08D00204FF48011FD
:1009A000064684460EE0171B73EB050705D3121BA2
:1009B00063EB050306434CEA010C49084FEA30009B
:1009C00092185B4150EA0107EDD152EA030012D0C0
:1009D00082EA040083EA0501084305D0101BAB41FD
:1009E00006D20122002306E000224FF0004302E07D
:1009F0006FF0010253101AEB06004CEB085110EB9C
:100A00000A0041EB0B01BDE8F04D00F0FFB9C1F366
:100A10000A52C1F3130140F2FF3341F480119A42AC
:100A200002DA00200146704740F233439A42A2F2B4
:100A3000334202DC5242FFF7C1BB00F02BB800008A
:100A400030B5041E71F1000404DB4FF00044404255
:100A500064EB0101141E73F1000405DB1C464FF02A
:100A60000043524263EB0403994208BF904230BDF9
:100A7000064C074D06E0E06840F0010394E80700EB
:100A800098471034AC42F6D3FFF734FB7C4A000899
:100A90009C4A0008202A04DB203A00FA02F10020D8
:100AA00070479140C2F1200320FA03F319439040AC
:100AB0007047202A06DBCB17203A41FA02F043EABE
:100AC000E07306E041FA02F3D040C2F12002914007
:100AD000084319467047C0B24FF4F05100F0F4B922
:100AE0002DE9F34F8BB04FF0000801F10C000C46DC
:100AF0004FF0010B46460DF1080A01906269012191
:100B000001989047051E2DD0252D2CD0216A8847AD
:100B1000C0B16269012101989047216A8847002885
:100B2000F7D1411E62690198904700E0761CA169E7
:100B30000B988847216A88470028F7D1E1690B980C
:100B40008847DBE7A1690B9888470746A84201D18F
:100B5000761CD3E7E1690B9888477F1C02D1B8F176
:100B6000000F6FD046E1002762693D463946019883
:100B700090472A2804D162690121019890470125F4
:100B8000DFF884926269012101989047A0F1300159
:100B90000A290AD24F45E5DC07EB870100EB410744
:100BA000303FDFD445F01005ECE7E90601D46FF0E3
:100BB00000476C280AD04C2814D0682815D06A2821
:100BC0000DD074281CD07A281AD01DE0626901214A
:100BD000019890476C2802D045F0040514E045F0D8
:100BE00002050DE045F020050AE062690121019847
:100BF0009047682802D045F0080505E045F40065F7
:100C00006269012101989047C4E9015765283DD0E8
:100C100019DC58287AD00CDC452837D004DC25288C
:100C200026D0412831D131E046282FD047282CD179
:100C30002CE05B2877D0612828D063287CD06428FA
:100C400023D15AE0D0E06F2848D008DC66281DD0B8
:100C500067281BD0692821D06E2816D127E070287C
:100C600045D0732868D0752847D078280DD14DE03D
:100C7000A1690B988847054625283FF469AFE169CB
:100C80000B9888476D1C3FF46AAFB3E023466A4671
:100C90006FF001000B99AFF300809EE045F040003B
:100CA0006060A80723464FF0000236D43EE0E80714
:100CB0007FF447AF2068011D21600068290501D538
:100CC00006701BE7290701D5068017E7A90703D59A
:100CD000F117C0E9006111E706600FE745F0400039
:100CE0006060A80723464FF0080216D41EE040F6C5
:100CF0000E0125EA0100606016E045F040006060EA
:100D0000A80723464FF00A0207D40FE045F0400041
:100D10006060A80708D5234610226FF001000B99E8
:100D2000AFF3008059E007E0234610226FF0010086
:100D30000B99FFF789FA50E04FF000094F464B46F8
:100D4000632802D05B2806D040E0E80601D40120E9
:100D5000A06001273AE062690121019890475E286E
:100D600005D14FF001096269494601989047216910
:100D700039B900210A46534643F82120491C082965
:100D8000FADBB0B3216969B9C11700EBD162531125
:100D90000AEB830122F01F02821A01200B689040A7
:100DA00003430B6062690121019890475D28E8D1F7
:100DB000B9F1000F09D00020514651F82020D2434C
:100DC00041F82020401C0828F7DB02AB22460097A0
:100DD0006FF001000B99AFF3008000280CDA401C83
:100DE00008D1BBF1000F05D04FF0FF300DB0BDE8CA
:100DF000F08FFFE74046F9E7E90701D108F1010864
:100E000006444FF0000B79E6CCCCCC0C10B5141E88
:100E100073F1000408DA401C41F1000192185B41B3
:100E20001A4301D120F0010010BD2DE9F04D92468A
:100E30009B4611B1B1FA81F202E0B0FA80F22032A1
:100E40009046FFF727FE04460F4640EA0A0041EAB3
:100E50000B0153465A46084313D0114653EA01008A
:100E600019D0C8F140025046FFF7A8F905460E46D2
:100E7000504659464246FFF70DFE084305D0012073
:100E800004E020463946BDE8F08D0020054346EADF
:100E9000E0762C4337430A986305E40AA0EB080088
:100EA0000022FD0A44EA47540A3002D500200146D8
:100EB000E9E7010510196941DDE9084500196941B3
:100EC000BDE8F04DA2E700007F2801D9002208E02C
:100ED000064A02EB5002C007127800D1120902F054
:100EE0000F0201209040084070470000A849000808
:100EF00070B5044600688168C943C90717D1816885
:100F000021F00101816000F077FD05460AE000BF95
:100F100000F072FD401B022804D920688068C0439D
:100F2000C00706D020688068C043C007F0D000200A
:100F300070BDA06A40F01000A062E06A40F00100BD
:100F4000E062012070BD10B50146406A826A12F06D
:100F5000500F05D0006A026BBDE8104008461047EC
:100F6000816A41F40071816201688968C1F342417C
:100F700007290CD1017B51B9816A21F4807181620A
:100F8000816AC90403D4816A41F00101816200F0E1
:100F900023FA10BD10B5406A816A41F040018162B8
:100FA000C16A41F00401C16200F018FA10BD10B529
:100FB000406A00F012FA10BDF8B50026044600960B
:100FC00000688168C943C9072DD0816841F00101DB
:100FD0008160164816490068B0FBF1F000E0401E41
:100FE00000900028FBD100F007FD054616E000BF89
:100FF00000F002FD401B022810D920688068C04321
:10100000C0070BD0A06A40F01000A062E06A40F078
:101010000100E06284F824600120F8BD2068806847
:10102000C043C007E4D10020F8BD0000200000202C
:1010300040420F0000228021014800F0D8BC00008F
:10104000000C014001228021014800F0D0BC0000CA
:10105000000C0140FEE700001FB54FF480500090E7
:1010600001200190032003906946024800F0CAFB6A
:101070001FBD0000000C01402DE9F0410025174E76
:101080002C464FF480574FF001083946304600F0A7
:10109000A9FC0028F9D0282002F05AFD3946304634
:1010A00000F0A0FC01280BD0C4F1070108FA01F000
:1010B0008543641CE4B2082CE7D32846BDE8F081E0
:1010C0003946304600F08EFC0128F9D0C4F1070102
:1010D00008FA01F0C0B20543EBE70000000C014044
:1010E0007FB50446FFF7B8FF284E4FF48055002225
:1010F0002946304600F07BFC122000F033FB012231
:101100002946304600F073FC1E2002F021FD00202D
:10111000CDE90050012002906946304600F072FB94
:101120002946304600F05EFC70BB2946304600F090
:1011300059FC0028F9D02946304600F053FC01281C
:10114000F9D0FFF799FF2070FFF796FF6070FFF767
:1011500093FFA070FFF790FFE070FFF78DFF207105
:10116000FFF77AFF01222946304600F040FC207844
:101170006178E2780844A1781144084421798842D2
:1011800002D1012004B070BD0020FBE7000C01403B
:1011900030B590F840500124AC40C56B6C600468D9
:1011A00063604368102B036803D099600068C260D5
:1011B00030BD9A600068C16030BD70474FF4005088
:1011C00000F014BB022000F011BB72B6FEE7000075
:1011D0001CB507490120CDE900010023802205A1AB
:1011E000074803F069FABDE81C4003F0E5B90000C8
:1011F0000400002073746172745F7461736B00008B
:10120000B93F0008F8B500250446009590F8240081
:1012100001280BD0012084F824002046FFF768FE47
:101220002046FFF7C9FE060002D050E00220F8BDBC
:10123000A06A20F4885040F00200A062022000F072
:10124000A5FC25490968B1FBF0F0400000E0401E14
:1012500000900028FBD12068816841F0080181607E
:1012600000F0CAFB074608E000F0C6FBC01B0A28D6
:1012700003D920688068000715D4206880680007BB
:10128000F2D42068816841F00401816000F0B4FB71
:10129000074612E000F0B0FBC01B0A280DD92068F9
:1012A0008068400709D5A06A20F0020040F01000D5
:1012B000A06284F824500120F8BD206880684007AF
:1012C000E8D4A06A20F0020040F00100A06284F897
:1012D00024503046F8BD000020000020F8B500245E
:1012E000009490F824202546012A12D0012280F88B
:1012F00024204A681F23072A0DD20668776B521EE6
:1013000002EB820293409F430B6893401F43776335
:1013100019E00220F8BD06680D2A0AD2376BD21FE9
:1013200002EB820293409F430B6893401F43376355
:1013300009E0F76A0D3A02EB820293409F430B6883
:1013400093401F43F7620A68072306680A2A0AD3F4
:10135000F7680A3A02EB420293409F438B6893403E
:101360001F43F76008E0376902EB420293409F4356
:101370008B6893401F4337610A68102A01D0112AF5
:1013800020D1124B02689A4217D193681B0219D4DC
:10139000936843F4000393600968102912D10C4943
:1013A0000C4A0968B1FBF2F101EB8101490000E050
:1013B000491E00910029FBD104E0816A41F020011F
:1013C0008162012480F824502046F8BD00240140A9
:1013D0002000002040420F00704770477047000017
:1013E0002DE9F0414FF0000704003D467ED0A06A91
:1013F000002628B9E66284F82460204600F07EF8D2
:101400002046FFF775FDA16AC90600D420B1A06A85
:1014100040F01000A06269E0A16A21F4885141F017
:101420000201A1626268E169237B0A4347EA430142
:101430000A43A1684FF48077B94209D0012907D047
:101440005FF0000194F814C0BCF1010F02D00AE073
:101450003946F7E7F3B1A36A43F02003A362E36AD6
:1014600043F00103E3622368D3F804C02CF4694C11
:101470004CEA010CC3F804C021688B68DFF870C027
:1014800003EA0C0313438B60A168B9420BD0012916
:1014900009D00CE0DFF85CC0A3690CEB43330B43CD
:1014A00043F40061DFE7218A0D05A5F58015216869
:1014B000CB6A23F470032B43CB62216889680E4BFF
:1014C0001940914208D1E662A16A21F0020141F07F
:1014D0000101A162BDE8F081A06A20F0020040F0A5
:1014E0001000A062E06A40F00100E0620120F1E734
:1014F000FDF7E1FF00E0FFFFFE0E1FFF70B586B0B5
:1015000000250646009501950295039500681A4945
:1015100088422ED11949886940F400708861886931
:1015200000F400700490886940F0040088618869C4
:10153000694600F004000490072000900320019009
:101540000F4800F05FF9104C0E48C4E900058020F8
:10155000C4E9025040002061800060612020C4E99D
:101560000605204600F098F808B1FFF72EFE346219
:10157000666206B070BD0000002401400010024009
:101580000008014008000240B80000202DE9F047A3
:10159000894604463B4900683B4F0E1D90468842F1
:1015A00001D0B84207D1306810F4702F03D0012564
:1015B0002846BDE8F08794F8240001280CD00120CB
:1015C00084F824002046FFF7F7FC05004FF00000E8
:1015D00004D084F82400EBE70220EAE7A16A40F691
:1015E0000162914341F48071A1622168B94218D12E
:1015F000326812F4702F14D0A16A41F48011A162F4
:101600003168490505D5A16A21F4005141F48051A2
:10161000A162A16AC9040AD5E16A21F00601E1626A
:1016200006E0A26A22F48012A2624968E9E7E06259
:1016300084F82400216A15488862216A1448C86227
:10164000216A1448086321686FF00200086020686E
:10165000816841F480718160216843464A464C317B
:10166000206A00F047F820688168C1F342410729E9
:10167000816803D041F48011816099E741F4A001B1
:10168000FAE700000024014000280140470F00084D
:10169000AF0F0008950F000830B528B308C81349EC
:1016A00014221944B1FBF2F18900C163104981632E
:1016B000022141771A6843F6F0718A43D0E9001499
:1016C0002143D0E902452C43214304692143446965
:1016D00021438469214311431960002141630122A0
:1016E00042770177084630BD012030BDF8FFFDBFCD
:1016F0000000024070B5044690F820000025012843
:101700000CD0012084F8200094F821600020012EE4
:1017100006D084F820000225284670BD022070BD46
:10172000022684F82160A0632068066826F001067E
:1017300006602046FFF72CFDE06A0028206801685B
:1017400002D041F00E0106E021F0040101602068A2
:10175000016841F00A0101602068016841F001015F
:101760000160D9E770B5044600F046F90546601CF3
:1017700002D004480078044400F03EF9401BA04227
:10178000FAD370BD1400002070B5164C02281CD08E
:101790006514A84225D10A20FFF7E4FF2946204618
:1017A00000F020F901281CD1C10201220E4800F0EE
:1017B0001EF901221102204600F019F90122082128
:1017C0002046BDE8704000F012B90A20FFF7CAFFBA
:1017D0000221204600F006F9002802D10122202132
:1017E000EEE770BD000C014000080140044910B54F
:1017F0000A68024202D00860FFF7C6FF10BD000071
:10180000140401402DE9F84FDFF8B8910024A9F144
:10181000040B23460F2709F1040AABF1040EC9E0BB
:101820000125A5402A40AA427DD1674ED1F804C0C7
:10183000ACEB0608B44532D014DCBCF1030F3AD04F
:1018400009DCBCF1000F2AD0BCF1010F1CD0BCF1A7
:10185000020F31D11DE0BCF1110F17D0BCF1120FF6
:101860002AD119E0B8F5881F19D006DCB8F5803FF9
:1018700015D0B8F5801F1FD111E0B8F5001F0ED0AC
:10188000B8F5041F18D10AE0CB6815E0CB681B1D22
:1018900012E0CB6808330FE0CB680C330CE08B68A8
:1018A0002BB1012B4FF0080303D0456104E0042362
:1018B00002E0056100E00023FF2A01D8064601E0AE
:1018C00000F104064FEA840501D9A5F12005D6F8F8
:1018D000008007FA05FC28EA0C0803FA05F548EA37
:1018E0000508C6F800804D68ED0062D5374DAE6939
:1018F00046F00106AE61AD6924F0030605F001056E
:101900000095334D06EB050CDCF80850A607360FA2
:1019100007FA06F825EA0805DFF8B880404503D144
:101920004FF0000817E044E0DFF8AC80404502D1FA
:101930004FF001080FE0DFF8A480404502D14FF0DE
:10194000020808E0DFF89880404502D14FF0030814
:1019500001E04FF0040808FA06F848EA0508CCF858
:1019600008804D68D9F80060ED024D4601D5164358
:1019700000E096432E604D68DAF80060AD025546EF
:1019800001D5164300E096432E604D68DBF80060F9
:10199000AD035D4601D5164300E096432E604D68C9
:1019A000DEF80060ED03754601D5164300E096436E
:1019B0002E60641C0D682A46E5407FF431AFBDE817
:1019C000F88F0000080401400000111000100240D0
:1019D0000000014000080140000C014000100140DF
:1019E000001401408068084000D0012070470AB10F
:1019F000016170470904FBE70148806870470000F7
:101A00001400002002488168027811448160704708
:101A100014000020074810B5016841F01001016072
:101A2000032000F0A1F8012000F006F800F050F8C3
:101A3000002010BD0020024030B505461F4887B089
:101A4000C16941F00401C161C06906A900F0040048
:101A5000009001A800F0F8F90498B0B100F014FA71
:101A600040001749174AB0FBF1F11748491E0260C0
:101A7000416040F2E7320021C0E9032181608161C9
:101A800000F00EFC040003D015E000F0FDF9E8E7DB
:101A90000D4800F053FC04000DD11E2000F036F874
:101AA000102D07D2002229461E2000F03DF80748DD
:101AB000056000E0012407B0204630BD0010024060
:101AC00040420F00000800401C02002018000020C7
:101AD0000C4808B5816941F001018161816901F01B
:101AE00001010091C16941F08051C161C06900F0FC
:101AF000805000900448416821F0E06141F000719D
:101B0000416008BD0010024000000140002809DBD0
:101B100000F01F02012191404009800000F1E02007
:101B2000C0F8001170470000F0B40E4B1B680C4663
:101B3000C3F30223C3F10705042D00D90425191DA1
:101B4000072901D2002300E0DB1E012606FA05F179
:101B5000491E214099409E40761E16403143F0BCFC
:101B600001F06ABB0CED00E0064900F007020868CE
:101B70004FF6FF03184040EA0220034A1043086072
:101B8000704700000CED00E00000FA0510B50146BA
:101B90000020234C012922D0022939D010291DD13F
:101BA00061682268D20119D51E48C1F38342C90376
:101BB000805C0AD561681B4AC1F34041921E515CAA
:101BC000194AB2FBF1F1484301E018494843616802
:101BD000490203D440000321B0FBF1F010BD226A9A
:101BE000C2F30121012903D1920701D5C80310BD19
:101BF000022905D1626A920702D549F6404010BD1C
:101C00000329FCD121688903F9D54FF2244010BD86
:101C100000F04AF96168C1F38131491C4900DBE7F2
:101C2000001002408049000800127A0000093D00BF
:101C30002DE9F84305460078354CC00754D0E069DB
:101C40000026C00008D4E06940F08050E061E069FF
:101C5000012600F0805000902E480168C90512D47A
:101C60000168804641F480710160FFF7C5FE0746B8
:101C700005E000BFFFF7C0FEC01B642823D8D8F8DA
:101C80000000C005F6D5206A10F4407021D0A98864
:101C900001F4407181421CD0206A1F49012220F4C6
:101CA00040700A6000220A602062C00711D0FFF76E
:101CB000A3FE074641F2883808E000BFFFF79CFE0C
:101CC000C11B414502D90320BDE8F883206A800783
:101CD000F4D5206A696820F44070084320621EB180
:101CE000E06920F08050E0612878800705D56068C1
:101CF000A96820F44040084360602878C00605D5F4
:101D00006068E96820F48000084360600020DBE739
:101D10000010024000700040400442422DE9F047AC
:101D20000F46050061D0434E306800F00700B8420E
:101D300009D2306820F0070038433060306800F086
:101D40000700B84251D128683B4C810712D54007A3
:101D500003D5606840F4E06060602878000703D530
:101D6000606840F4605060606068A96820F0F0002E
:101D7000084360602878C00728D06868012810D020
:101D80002168022810D0890700292EDA616821F025
:101D9000030101436160FFF72FFE804641F288395D
:101DA0000DE021688903EFE78901EDE7FFF724FEE5
:101DB000A0EB0801494502D90320BDE8F08760681F
:101DC000696800F00C00B0EB810FEFD1306800F0D3
:101DD0000700B8420BD9306820F007003843306064
:101DE000306800F00700B84201D00120E5E728780C
:101DF000400705D56068E96820F4E060084360604A
:101E00002878000706D56068296920F4605040EA08
:101E1000C100606000F058F86168084AC1F303111E
:101E2000515CC8400649086006480068FFF704FE98
:101E30000020C2E700200240001002409049000844
:101E400020000020180000200F2202600C4A536876
:101E500003F003034360536803F0F00383605368A7
:101E600003F4E063C36052684FF4E06303EAD20214
:101E700002610448006800F0070008607047000035
:101E800000100240002002400448054900684968EB
:101E9000044AC1F30221515CC84070472000002071
:101EA00000100240A049000804480549006849683C
:101EB000044AC1F3C221515CC84070472000002091
:101EC00000100240A04900080E4A51680E4801F077
:101ED0000C03042B11D0082B0FD10C48C1F3834302
:101EE000C903C05C0AD55168084AC1F34041921E3B
:101EF000515C054A5043B0FBF1F070470449484338
:101F0000704700000010024000127A006E4900087D
:101F100000093D002DE9F84F040070D02078C04D35
:101F2000C00749D06868C0F38100012807D06868FD
:101F3000C0F38100022809D16868C00306D528686B
:101F4000800339D560680028E7D035E06068B0F5D7
:101F5000803F0BD010B1B0F5A02F11D0286820F42D
:101F600080302860286820F4802002E0286840F44F
:101F700080302860606890B1FFF73EFD06460AE0B9
:101F8000286840F480202860F0E700BFFFF734FDA8
:101F9000801B642873D828688003F7D50CE0FFF70E
:101FA0002BFD064605E000BFFFF726FD801B6428D9
:101FB000F0D828688003F7D420789A4E80074FF035
:101FC00001094FF0000839D5686810F00C0F07D0F0
:101FD0006868C0F38100022809D16868C00306D48C
:101FE0002868800714D52069012808D110E02069ED
:101FF000B0B1C6F80090FFF7FFFC074605E00AE124
:10200000FFF7FAFCC01B0228C4D828688007F7D560
:102010002868616920F0F80040EAC10028600DE0FE
:10202000C6F80080FFF7E8FC074604E0FFF7E4FC91
:10203000C01B022823D828688007F7D4207800071F
:102040002CD57948A169D9B1C0F80090FFF7D4FC2C
:10205000074604E0FFF7D0FCC01B02280FD8686ACF
:102060008007F7D571484FF4FA510068B0FBF1F0E2
:10207000009000BF0098411E0091FAD20EE080E06F
:10208000C0F80080FFF7B8FC074604E0FFF7B4FC97
:10209000C01B022875D8686A8007F7D420784007EB
:1020A00060D5E8690027C00008D4E86940F0805096
:1020B000E861E869012700F0805000905C48016801
:1020C000C90513D40168834641F480710160FFF7AC
:1020D00093FC824606E000BFFFF78EFCA0EB0A00EF
:1020E00064284ED8DBF80000C005F5D5E06801286B
:1020F0000AD008B1052813D0286A20F00100286210
:10210000286A20F0040002E0286A40F001002862FA
:10211000E06841F2883B98B1FFF76EFC82460BE025
:10212000286A40F004002862EEE700BFFFF764FC75
:10213000A0EB0A0159455AD8286A8007F6D50CE069
:10214000FFF75AFC824605E0FFF756FCA0EB0A01B8
:1021500059454CD8286A8007F6D41FB1E86920F0A9
:102160008050E861E06988B36968C1F381010229A0
:1021700044D00228C6F8608004D0FFF73DFC044636
:1021800038E034E0FFF738FC074604E0FFF734FCA2
:10219000C01B02282BD828688001F7D4206AB0F52C
:1021A000803F05D16868A16820F40030084368606A
:1021B000D4E908010843696821F474110843686090
:1021C000C6F86090FFF718FC044606E025E000BF63
:1021D000FFF712FC001B022809D828688001F7D5F8
:1021E0001BE000BFFFF708FC001B022802D90320F8
:1021F000BDE8F88F28688001F4D40EE00128F7D0FC
:102200006868226A00F48031914204D1616A00F466
:102210007010884201D00120EAE70020E8E70000C2
:102220000010024000004242800442422000002090
:10223000007000407047704770B590F83C20012A4C
:1022400026D0012480F83C40022280F83D2003681B
:102250005A689D6822F070060A6832435A600D4B36
:1022600002689A4208D0B2F1804F05D00A4B9A42D8
:1022700002D00A4B9A4204D1496825F080031943E1
:10228000916080F83D40002180F83C10084670BD08
:10229000022070BD002C01400004004000080040F6
:1022A00010B5040003D094F83D0010B107E0012000
:1022B00010BD002084F83C00204600F01FF80220EA
:1022C00084F83D00211D206800F0B4FD012084F851
:1022D000460084F83E0084F83F0084F8400084F80B
:1022E000410084F8420084F8430084F8440084F8F4
:1022F000450084F83D00002010BD000008B50C4AE0
:1023000001680C48914207D1816941F40061816103
:10231000806900F4006009E0074A914207D1C16971
:1023200041F00201C161C06900F00200009008BDE7
:10233000002C0140001002400004004090F83D10C5
:10234000012901D001207047022180F83D10016869
:10235000CA6842F00102CA6000680B49884208D08E
:10236000B0F1804F05D00949884202D0084988421F
:1023700004D1816801F00701062903D0016841F00A
:102380000101016000207047002C01400004004062
:102390000008004070B5044690F83C000025012874
:1023A00017D0012684F83C60022084F83D002068A4
:1023B000826822F0770222F47F4282600868502807
:1023C00038D00DDC20284FD005DC90B3102811D177
:1023D0004AE0022070BD302846D040280AD13BE0B8
:1023E00060282FD070280DD0B0F5805F03D0B0F5F5
:1023F000005F12D0012584F83D60002084F83C0085
:10240000284670BDCB68D1E90121206800F05BFD52
:102410002068816841F0770109E0CB68D1E90121AA
:10242000206800F050FD2068816841F4804181609F
:10243000E1E719E0CA684968206800F0F9FD502119
:10244000206806E0CA684968206800F002FE602142
:10245000206800F042FDCEE7CA684968206800F0B5
:10246000E7FD40212068F4E7226801461046F0E7C6
:1024700070472DE9F04104460068C66805694FF0D1
:102480000007A90713D5B10711D5F91E0161012075
:102490002077206880698007204602D0FFF7E8FF98
:1024A00004E000F0A5F8204600F037F92777680728
:1024B00016D5700714D521686FF00400086102205A
:1024C00020772068806910F4407F204602D0FFF713
:1024D000CFFF04E000F08CF8204600F01EF92777CB
:1024E000280715D5300713D521686FF0080008615B
:1024F000042020772068C0698007204602D0FFF7BB
:10250000B7FF04E000F074F8204600F006F92777E2
:10251000E80616D5F00614D521686FF010000861A2
:10252000082020772068C06910F4407F204602D040
:10253000FFF79EFF04E000F05BF8204600F0EDF8A6
:102540002777E80708D0F00706D021686FF0010070
:102550000861204600F030F9280608D5300606D577
:1025600021686FF0800008612046FFF763FE68066F
:1025700008D5700606D521686FF040000861204636
:1025800000F024F9A8060AD5B00608D521686FF036
:10259000200008612046BDE8F041FFF74CBEBDE8D1
:1025A000F081000000B585B00021009101910291F9
:1025B000039100680B49884211D10B48816941F0B1
:1025C000040181618069694600F0040004904020A4
:1025D00000900220019003900448FFF713F905B022
:1025E00000BD00000004004000100240000801404F
:1025F000704770B5044690F83C0000260D4601284F
:102600000FD0012084F83C006AB1042A1DD0082AAA
:102610002FD00C2A3FD00126002084F83C00304601
:1026200070BD022070BD206800F060FC20688169E8
:1026300041F0080181612068816921F00401816114
:10264000206881692A69114311E0206800F076FC56
:102650002068816941F4006181612068816921F409
:1026600080618161206881692A6941EA0221816172
:10267000D2E7206800F08EFC2068C16941F00801B3
:10268000C1612068C16921F00401C1612068C1698C
:102690002A69114311E0206800F0A8FC2068C16994
:1026A00041F40061C1612068C16921F48061C161A8
:1026B0002068C1692A6941EA0221C161ACE710B50D
:1026C000040003D094F83D0010B107E0012010BDD4
:1026D000002084F83C00204600F01EF8022084F818
:1026E0003D00211D206800F0A5FB012084F8460074
:1026F00084F83E0084F83F0084F8400084F84100EC
:1027000084F8420084F8430084F8440084F84500CB
:1027100084F83D00002010BD7047704710B5044696
:10272000022249B104290ED0082913D094F841009F
:10273000012816D0012010BD94F83E000128F9D1DF
:1027400084F83E200FE094F83F000128F2D184F88D
:102750003F2008E094F840000128EBD184F84020A5
:1027600001E084F841200122206800F09FFB0F491E
:102770002068884203D1426C42F4004242642068DF
:10278000884208D0B0F1804F05D00949884202D074
:102790000849884204D1816801F00701062903D065
:1027A000016841F001010160002010BD002C0140D2
:1027B000000400400008004000680349884201D13D
:1027C000FFF720B97047000000080040704770B55F
:1027D000040004D094F84100002510B106E0012067
:1027E00070BD84F84050204600F024F8242084F87E
:1027F00041002068C16821F40051C160204600F00A
:1028000061FC2068016921F49041016120684169FF
:1028100021F02A0141612068C16841F40051C16082
:102820006564202084F8410084F84200656300203C
:1028300070BD000070B586B000240094019402942D
:10284000039403682648254E022103220515B3424E
:102850001ED1836943F480438361836903F4804319
:102860000493836943F00403836180691D4E00F083
:10287000040004900802CDE9000103926946304645
:10288000FEF7C0FFCDE9005469463046029420E0CF
:10289000154EB3421FD1C36943F48023C361C3699A
:1028A00003F480230493836943F008038361806900
:1028B000CDE9005100F00800CDE903200B4D694639
:1028C0002846FEF79FFFE814CDE900046946284634
:1028D0000294FEF797FF06B070BD0000003801407B
:1028E000001002400008014000480040000C014078
:1028F0002DE9F84F044690F842009A4616460D46D8
:10290000202802D00220BDE8F88FB5B1AEB100207A
:102910006064222184F842102063FFF76DF8A685D9
:102920008146E685A0684FF480582027404501D1B4
:10293000206920B12E46002529E00120E3E700268A
:1029400025E04B46002220212046CDF800A000F0D3
:1029500015FC18B184F842700320D4E726B1A068B2
:1029600040451AD038B108E020684068C0F308003C
:1029700025F8020B08E0206978B12068406800F073
:102980007F0000BF06F8010BE08D401EE085E08D62
:102990000028D6D184F84270B5E720684068F1E796
:1029A0002DE9F843044690F84100984616460D4636
:1029B000202802D00220BDE8F88385B17EB1002036
:1029C0006064212084F84100FFF716F8A684814650
:1029D000E684A0682027B0F5805F02D003E00120E4
:1029E000E9E7206910B12E4600250EE000260CE034
:1029F0008021204600F0C2FBA8B9C6B116F8010B31
:102A000021684860E08C401EE084E08C4B464FF02B
:102A10000002CDF800800028EAD14FF040012046A6
:102A200000F0ACFB40B184F841700320C3E735F8F7
:102A3000020BC0F30800E3E784F841700020BAE716
:102A4000FEE70000FEB500241B48009401941949DC
:102A500002940160891581600125057304750326C0
:102A600006614FF460214460C161FEF7B9FC08B112
:102A7000FEF7ABFBCDE9004569460F480294FEF72F
:102A80002DFC08B1FEF7A1FB0224CDE900546946F4
:102A90000948FEF723FC08B1FEF797FBCDE9004695
:102AA00069460548FEF71AFC002801D0FEF78DFBA9
:102AB000FEBD00000024014088000020054808B544
:102AC000416941F001014161406900F0010000905D
:102AD00008BD0000001002402DE9F04786B0002438
:102AE0003F480094019402940394816941F01001DD
:102AF0008161816901F010010491816941F0200137
:102B00008161816901F020010491816941F0040132
:102B10008161816901F004010491816941F008013A
:102B200081618069DFF8BCA000F0080004900022F9
:102B30004FF484515046FEF75AFFDFF8AC904FF443
:102B40000068012241464846FEF751FF01224FF43A
:102B500094715046FEF74BFF02262448012500964B
:102B6000CDE9010569465046FEF74CFE41F2A8004A
:102B70000327CDE90005CDE9024769465046FEF737
:102B800041FE680300901A48CDE9010669465046A7
:102B9000FEF738FECDF800800397CDE90154694671
:102BA0004846FEF72FFE2802CDE90005CDE9024692
:102BB00069465046FEF726FE002204210720FEF754
:102BC000B3FF0720FEF7A2FF002204212820FEF712
:102BD000ABFF2820FEF79AFF06B0BDE8F0870000A3
:102BE00000100240000C01400008014000002110CC
:102BF0000000111010B586B000241648009401940E
:102C00000294039404941249059401604721C0E999
:102C10000114C460046144618461FFF741FB08B1A1
:102C2000FEF7D3FA4FF48050009069460948FFF749
:102C3000B1FB08B1FEF7C9FA049404A9054805944C
:102C4000FFF7FAFA002801D0FEF7BFFA06B010BD70
:102C5000002C0140FC00002010B58EB00024079429
:102C6000089409940A940B941C2168460C94FDF76F
:102C7000BCFA1E481C4901604721C0E9011444F612
:102C80001F61C0E903148461FFF70AFB08B1FEF776
:102C90009CFA4FF48050079007A91448FFF77AFB7D
:102CA00008B1FEF792FA1148FFF709FD08B1FEF7E7
:102CB0008CFA0B940BA90D480C94FFF7BDFA08B1E0
:102CC000FEF783FA6020CDE90004029400226946F1
:102CD00006480494FFF78DFC08B1FEF776FA034826
:102CE000FFF760FC0EB010BD00040040440100205E
:102CF0000C4810B50A4901604FF4E13141600021F0
:102D000081600C22C160C0E904128161C161FFF7DA
:102D10005EFD002803D0BDE81040FEF756BA10BD96
:102D2000003801408C0100200C4810B50A490160B0
:102D30004FF4E1314160002181600C22C160C0E9A3
:102D400004128161C161FFF742FD002803D0BDE894
:102D50001040FEF73ABA10BD00480040D4010020F0
:102D6000FEE7FEE710B50849FDF79EFB0749FDF7B2
:102D700069FB0749FDF70EFBFDF7D9FB054980B25A
:102D80000968486310BD0000000034430000FA44A5
:102D90000000FA434401002010B501F0BBFC0128FB
:102DA00003D0BDE8104001F071BC10BD30B593B048
:102DB00028216846FDF719FA14210AA8FDF715FA2B
:102DC000002501200F9510951195010412958DE8AD
:102DD000230004904FF4E010CDE90810022407947A
:102DE0006846FFF797F808B172B6FEE70AA90F2008
:102DF00081E831004FF48060CDE90D0502210AA879
:102E0000FEF78CFF08B172B6FEE74FF40040119058
:102E10000F940FA8FEF70CFF002801D072B6FEE752
:102E200013B030BD704700000148FFF722BB00001F
:102E30001C020020F0B50268194B1A4C1A4D4FF0D5
:102E40008047984205D0B84203D0A04201D0A842A2
:102E500003D122F070064A683243984205D0B84246
:102E600003D0A04201D0A84203D122F44074CA6822
:102E700022434C6922F08002224302608A68C262C7
:102E80000A688262984201D10969016301214161A6
:102E90000169C90703D0016921F001010161F0BD99
:102EA000002C0140000400400008004010B501F073
:102EB0001F030121046A99408C430462016A9A400D
:102EC0001143016210BD10B5846842EA032224F464
:102ED0007F440A432243826010BD826822F0700260
:102EE0000A4342F0070181607047000030B5036A71
:102EF000026A22F0010202624268846924F07305CA
:102F00000C682C4323F002058B682B430A4DA84222
:102F10000BD123F00805CB6822F440722B434D6996
:102F200023F0040315438A692A4342608461496897
:102F30004163036230BD0000002C014030B5026ADD
:102F4000036A23F010030362436884690D6824F464
:102F5000E64444EA05248D6822F0200242EA051284
:102F60000B4DA8420ED1CD6822F0800242EA051234
:102F70004D6923F4406343EA85038D6922F04002E2
:102F800043EA85034360846149688163026230BD1E
:102F9000002C014030B5036A026A22F4807202629A
:102FA0004268C46923F4007324F073050C682C4351
:102FB0008D6843EA05230C4DA8420ED1CD6823F459
:102FC000006343EA05234D6922F4405242EA0512A8
:102FD0008D6923F4806342EA05124260C461496846
:102FE000C163036230BD0000002C014030B5046AAB
:102FF000026A22F4805202624268C3690D6823F4B7
:10300000E64343EA05238D6824F4005444EA05347A
:10301000064DA84204D14D6922F4804242EA85124D
:103020004260C36149680164046230BD002C014004
:1030300010B5036A046A24F001040462846924F070
:10304000F00444EA021423F00A020A438461026293
:1030500010BD10B5036A046A24F010040462846988
:1030600023F0A00324F4704444EA023243EA01113D
:103070008261016210BD01680C3151E8002F22F419
:10308000907241E80023002BF5D10168143151E81A
:10309000002F22F0010241E80023002BF5D1016B43
:1030A000012909D101680C3151E8002F22F01002EA
:1030B00041E80023002BF5D1202180F842100021A7
:1030C0000163704770B5044600680169E26821F445
:1030D0004051114301612169A068084361690843B7
:1030E0002168CA6841F20C639A430243CA602068AF
:1030F0004169A26921F44071114341611E49206870
:10310000884202D1FEF7D0FE01E0FEF7BDFE00EBE3
:10311000C00101EB0012606864218000B2FBF0F393
:10312000B3FBF1F36FF018067343B2FBF0F5B2FB9B
:10313000F0F605EB8305322303EB0515B5FBF1F53E
:10314000B6FBF1F605F0F00505EB0615B2FBF0F65F
:10315000B2FBF0F0B0FBF1F06FF01802504306EB59
:10316000800003EB0010B0FBF1F0216800F00F00CD
:103170002844886070BD0000003801402DE9F84304
:10318000984617460D460446089E24E0701C22D03F
:10319000FEF732FCA0EB0800B0421AD8CEB120688E
:1031A000C168490717D5802D15D0402D13D001686F
:1031B000C94309070FD401680025406800902046E4
:1031C000FFF759FF0820606484F840500120BDE8F3
:1031D000F8830320FBE72068006835EA000004D08C
:1031E0000020B842D2D00020F1E70120F9E7FEE745
:1031F0000FB4054B10B503A9044A029800F0FEF87D
:1032000010BC5DF814FB0000353B00088400002072
:103210000FB4084B10B504A902AA039800F0EEF809
:10322000044602A9002000F080FC204610BC5DF896
:1032300014FB00002B3B00080907090E002804DBE3
:1032400000F1E02080F80014704700F00F0000F15A
:10325000E02080F8141D704702E008C8121F08C162
:10326000002AFAD170477047002001E001C1121F07
:10327000002AFBD1704700002DE9FF5F82B00021DA
:10328000DDE90430020DDDF840B0034318D044F608
:103290001050A2F2FF3242431514119801281FD09A
:1032A000A5EB0B00401C5FEA000A4FF000064E4FF2
:1032B000DFF83891B046504615D5CAF1000413E046
:1032C000119801244AA3012801D16FEA0B01029849
:1032D000119AC0E90031C0E9024206B0BDE8F09F92
:1032E000CBF10000DFE704460021404A491842EBD9
:1032F0000450CDE9001012E0E00707D032463B460B
:1033000040464946FDF7A2FA8046894632463B468A
:1033100010461946FDF79AFA06460F466410002C2F
:10332000EAD1DDE90401DDE90023BAF1000F06DA94
:10333000FDF78CFA42464B46FDF788FA05E0FDF7AB
:10334000F7FA42464B46FDF7F3FA04460E460022D2
:10335000284BFDF775FB03D84FF0FF30014607E01F
:103360000022254B20463146FDF7C9F9FDF74FFBFA
:10337000102409E0002C0ADB0A220023FDF714F9CF
:10338000039B30321A55641E50EA0102F2D1641CCC
:10339000039AC4F111031444119A012A03D00122A3
:1033A00008430DD10AE0084304D000204FF0110B70
:1033B000119072E7A3EB0B056D1E0DE05B4504DD7C
:1033C0004FF0000205F1010504E003DA4FF00002BE
:1033D000A5F10105002AECD002981199C0E902314B
:1033E000C0E9004579E70000000014400000F03F0C
:1033F000300000000000F0430000E03F2DE9FF4FE7
:1034000095B09B468946064600250FE2252877D1D0
:1034100000242746F84A0121059400E0044316F8E9
:10342000013F203B01FA03F01042F7D130782A28FF
:1034300011D06FF02F033078A0F13002092A16D88E
:10344000059A44F0020402EB820203EB42021044AC
:10345000761C0590EFE759F8042B0592002A03DA51
:10346000504244F40054059044F00204761C307835
:103470002E2816D116F8010F44F004042A280DD086
:103480006FF02F023078A0F13003092B09D807EB39
:10349000870302EB4303C718761CF3E759F8047B54
:1034A000761C30786C280FD006DC4C2817D06828A2
:1034B0000DD06A2814D104E0742810D07A280FD1D6
:1034C0000DE044F400140AE044F4801401E044F4F4
:1034D00040147278824202D104F58014761C761C66
:1034E000307866280BD013DC582877D009DC002808
:1034F00075D04528F6D04628F4D047281AD19DE14A
:1035000018E0632835D0642879D0652812D195E178
:10351000702873D008DC6728F1D069286FD06E2836
:103520000DD06F2806D1B5E073282CD0752875D042
:10353000782874D05A46179990476D1C75E1C4F3EA
:103540000250022809D003280DD0D9F80010042811
:103550000DD00D6009F1040967E1D9F80010EA17F0
:10356000C1E90052F6E7D9F800100D80F2E70D70BE
:10357000F0E719F8041B8DF8001000208DF8010009
:10358000EA46012003E059F804AB4FF0FF30610731
:103590004FF0000102D40DE008F101018846B94264
:1035A0000FDA8045F8DB1AF808100029F4D108E09A
:1035B00008F1010188468142FADB1AF80810002957
:1035C000F6D105985B46A0EB080721463846179AC6
:1035D00000F094FA284400EB080507E04DE029E1EB
:1035E0000DE01AF8010B5A4617999047B8F10108F7
:1035F000F7D25B4621463846179A13E142E00A2289
:103600000092C4F302524FF0000A022A08D059F87F
:1036100004CB032A4FEAEC710AD00DE029E02AE03E
:1036200009F1070121F00702F2E802C1914609E021
:103630000FFA8CFC4FEAEC71042A03D14FFA8CFC90
:103640004FEAEC71002907DA0A460021DCF1000C90
:1036500061EB02012D2202E0220504D52B228DF818
:103660000420012203E0E20701D02022F7E7904680
:1036700059E00A2102E010220DE010214FF0000A6B
:1036800000910BE010224FF0000A44F004040827D8
:10369000009203E008224FF0000A0092C4F30252A5
:1036A000022A05D059F804CB0021032A08D009E0EA
:1036B00009F1070121F00702F2E802C1914605E095
:1036C0001FFA8CFC042A01D10CF0FF0C4FF000080B
:1036D000220728D5702806D0009B83F0100353EAF8
:1036E0000A0305D00EE040228DF80420012208E0F4
:1036F0005CEA010206D030228DF804208DF8050026
:1037000002229046009B83F0080353EA0A030AD181
:103710005CEA010201D1620705D530228DF8042050
:103720004FF001087F1E582804D034A003900EA843
:1037300002900DE036A0F9E753466046009AFCF788
:1037400033FF84460398825C0298401E0290027008
:103750005CEA0100F0D1029806A9081A00F1200ADB
:10376000600702D524F4803400E00127574502DDCC
:10377000A7EB0A0000E0002000EB0A01009005988A
:103780004144401A0590E00306D45B462146179A4F
:10379000059800F0B3F90544002706E001A85A4651
:1037A000C05D179990476D1C7F1C4745F6DBE00311
:1037B0000CD55B462146179A059800F09FF9054401
:1037C00004E030205A46179990476D1C0099481E16
:1037D00000900029F5DC08E0029802995A4600782A
:1037E000491C0291179990476D1CBAF10001AAF18A
:1037F000010AF1DC65E100000928010030313233B3
:10380000343536373839616263646566000000001C
:103810003031323334353637383941424344454606
:103820000000000000F058F90544761C30780028AC
:103830007FF4ECAD19B02846BDE8F08F620700D4E4
:10384000062709F1070222F0070CFCE80223E146F3
:1038500003F000485FEA080C02D00FF2702C0DE074
:103860005FEA045C02D50FF2682C07E05FEAC47CD3
:1038700002D00FF2602C01E0AFF2700C4FF0FF3875
:1038800023F00043CDF850C065280CD006DC452855
:1038900009D046281DD047283DD13DE0662818D0E4
:1038A00067287ED138E00021112F01DB112000E0D4
:1038B000781CCDE9000106A90EA8FFF7DDFCDDE9C3
:1038C0000F010E9A03910021009207F1010A049161
:1038D0004DE04FF000400097CDE9011006A90EA879
:1038E000FFF7CAFCDDE90F0203920E9B119900223B
:1038F000DDF80CA00093049211B9791C00EB010AC9
:10390000B7EB0A0004D4C0F1FF3007F1010A0490BC
:10391000AAEB0700019044E0012F00DA0127002103
:10392000112F01DD112000E03846CDE9000106A984
:103930000EA8FFF7A1FCDDE90F010E9A039100210B
:1039400004910092BA4621070CD40399514500DA3C
:103950008A46BAF1010F05DD009AAAF10101515C16
:10396000302908D0B84202DA10F1040F06DA01213A
:10397000CDE9011015E0AAF10101E9E7002805DC15
:10398000049901440491AAEB000102E0411C514555
:1039900000DD8A460499401A401C01904FF0004017
:1039A0000290200704D40198504501DBCDF8048033
:1039B00000208DF84F0002980DF14F07B0F1004F35
:1039C00025D02B200E9002984FF0020800280CDA28
:1039D000404202902D200E9007E00A210298FCF749
:1039E000CDFD3031029007F8011DB8F10001A8F1BA
:1039F0000108F2DC02980028EFD1791E0E980870B9
:103A0000307800F0200040F0450007F8020D12A8C1
:103A1000C01B00F107081498007800B1012000EBEA
:103A20000A01019801EBE07105984144401A401EDB
:103A30000590E00306D45B462146179A059800F0EE
:103A40005DF805441498007818B15A4617999047C4
:103A50006D1CE00324D55B462146179A059800F0BB
:103A60004DF805441CE00498002807DBDDE903015C
:103A7000884203DD0098405C179901E017993020D7
:103A80005A469047049805F10105401C049001989E
:103A9000401E019004D12E205A46179990476D1C64
:103AA000BAF10001AAF1010ADDDC05E017F8010B0B
:103AB0005A46179990476D1CB8F10001A8F101080A
:103AC000F4DC5B462146179A0598ABE62D00000012
:103AD0002B000000200000002DE9F04104460025E5
:103AE0001E461746880404D405E039462020B04716
:103AF0006D1C641EF9D52846BDE8F0812DE9F04122
:103B0000044600251E469046C80301D5302700E034
:103B10002027880404D505E041463846B0476D1C8F
:103B2000641EF9D52846BDE8F0810A68531C0B6075
:103B30001070704738B504468DF80000022301224A
:103B400069460248FEF72CFF204638BDD40100200C
:103B50002DE9F0414FF0E0240546A769FDF74CFF41
:103B6000064605EBC500C500BD420BD9FDF744FF75
:103B7000B042FBD00849781B0844A1698142FCD8B7
:103B8000BDE8F0817D1BA069A842F9D9FDF734FF9B
:103B9000B042F8D0F4E7000040190100FDF73AFF09
:103BA000FFF704F9FEF798FFFEF788FFFFF7A0F88C
:103BB000FEF748FFFFF750F8FFF7B6F8FFF71AF8DF
:103BC0000648FDF71FFB00210548FEF7A7FD002072
:103BD000FFF7C8F8FDF7FCFAFEE7000088000020B8
:103BE000440100202DE9F0411E4C0F460546E668D1
:103BF0002068001D00F0EEFB38B9206890F82C100A
:103C000001208840216981432161681C15D1A7B139
:103C1000154922684868906023688268DA602268E3
:103C20008368121D5A602268121D826020684161FB
:103C30000868401C0860BDE8F08120683544B54242
:103C40004560216805D2E06BBDE8F041091D00F038
:103C5000E2BBA06B091D00F0DEFBA06A8542EAD240
:103C6000A562E8E724000020180300202DE9F041B8
:103C7000054600F0F5FB364CA068401CA0602068AB
:103C8000344F10B1606940B32DE02560A068012871
:103C900029D1002606EB860007EB800000F0ADFB83
:103CA000761C052EF6D32B48643000F0A6FB29487D
:103CB000783000F0A2FB27488C3000F09EFB2548AE
:103CC000A03000F09AFB2348B43000F096FB214866
:103CD0006430A0631430E06305E02068E96AC06ADC
:103CE000884200D82560606A0121401C6062E86A51
:103CF000226981401143216100EB800007EB8000C5
:103D00004068A8608168E9608268291D516081600F
:103D1000E86A00EB800007EB8001696157F820102A
:103D2000491C47F8201000F0A9FB606900280CD05E
:103D30002068E96AC06A884207D207494FF080507C
:103D40000860BFF34F8FBFF36F8FBDE8F0810000B5
:103D5000240000206402002004ED00E010B50446B9
:103D6000006B00F095FB2046BDE8104000F090BBD2
:103D70000E484FF48841420706D0C01D0B4920F081
:103D80000700411AC1F58841094A00230144C2E9EC
:103D900000030839143A21F0070111604B600B60F1
:103DA0000B1AC0E900139360536070472C03002086
:103DB0007C000020144E154CA6F1A0074FF080584F
:103DC000DFF84C9012E000BF00F04AFBF068C568D5
:103DD000281D00F0FFFAA068401EA0606068401E29
:103DE000606000F04BFB2846FFF7B8FF60680028D2
:103DF000EAD138680128F9D9C9F80080BFF34F8F9C
:103E0000BFF36F8FF2E700000403002024000020BE
:103E100004ED00E02DE9F0479946DDE909648046AC
:103E20006FF00303206B03EB8202089D104420F027
:103E3000070761B1002023180A5C83F834200A5C6C
:103E400012B1401C1028F6D3002084F84300052D41
:103E500000D30425201DE56200F0DAFA04F1180011
:103E600000F0D6FA2461C5F105006462A0614A46FB
:103E70004146384600F08EF82060002E00D03460B5
:103E8000BDE8F08730B5114900E011460A6882426A
:103E9000FBD34B685C18844203D1406818444860E7
:103EA000084643681C18944209D1084C143C246805
:103EB000A24209D052681A4442600A68126802603D
:103EC000814200D0086030BD0460F9E77C0000202A
:103ED0000548816B096821B1816BC96809688162F5
:103EE00070474FF0FF31FAE724000020BF2080F335
:103EF0001188BFF34F8FBFF36F8FFEE770B5044695
:103F0000002600F081FB224D286808B9FFF730FF3A
:103F1000CCB304F00700C0F11000C1438C4232D88A
:103F2000211800292FDD686881422CD818481430E8
:103F30000246146801E02046144662688A4202D2B2
:103F40002268002AF7D12A6894421CD006682268A9
:103F5000026060680836421A102A04D9601842606C
:103F60006160FFF78FFF61686868401A6860AA683F
:103F7000904200D2A86041F00040606000202060C4
:103F8000E868401CE86000F065FC304670BD000049
:103F90006800002010B5031F4FF080741C601B1FC9
:103FA00021F001011960191F024B0B6014394038D0
:103FB0000A6010BDED3E00081CB500F051FA124831
:103FC0000124CDE900400023220210A1114800F095
:103FD00073FB0D480023001DCDE9004080220EA197
:103FE0000F4800F069FB084800230830CDE9004085
:103FF00080220CA10D4800F05FFB002000F08EFA3B
:10400000BDE81C4000F03ABA080000207461736BF0
:1040100031000000314000087461736B3200000011
:10402000A54100087461736B33000000BD420008B5
:10403000C2B000203D90804605463E9003223DA937
:104040004548FDF7A3FADFF814914FF4FA7A4FF4DC
:104050007A7B43A0FFF7CCF83FA8FDF741F860B1A9
:104060009DF8FF000A21B0FBF1F09DF8FE10084416
:10407000FCF758FA9DF8FC508046BDF8F810514501
:1040800010D200224FF400613948FDF7B0FC394CE2
:1040900000224FF480712046FDF7A9FC0022082180
:1040A000204606E0BDF8F610514504D2002220213A
:1040B0003048FDF79CFCBDF8F400C821484340F6A9
:1040C000FF71B0FBF1F0C0F1C800C6B24046FCF78A
:1040D00042FA0C460746CDE9005623463A4626A149
:1040E0002CA8FFF795F899F80130384621464A4642
:1040F0000BB125A300E026A394780CB122A400E024
:1041000023A499F800200AB11FA700E020A7BDF85A
:10411000F62003970095CDE90162CDE904430246FC
:104120000B461D4906A8FFF773F82CA8FCF768F8A2
:1041300082B25C465B462CA91848FEF731FC06A803
:10414000FCF75EF882B2234606A91548FEF728FC64
:10415000204600F0CBF97CE788000020000000201A
:10416000E4BBBBE58AA131E8BF90E8A18C0A00005E
:1041700000080140000C014054252E31664825649A
:104180004C25640A00000000747275650000000090
:1041900066616C7365000000E84900088C0100202E
:1041A000D401002008B5DFF8E080384C384E4FF4D9
:1041B00000674FF480794FF47A7536A0FFF718F84E
:1041C0002B46022269463748FEF792FB9DF8000015
:1041D000412806D0572811D04C281BD0422840D067
:1041E0004EE02A4A30A16846FCF712F8207810B158
:1041F000FCF728FF44E0FCF71DFF41E0234A2BA118
:10420000521C6846FCF704F8607800B12848FEF7B5
:10421000A9FD35E01D4A27A1921C6846FBF7F8FF6F
:10422000A07888B1002239464046FDF7E0FB002225
:1042300049463046FDF7DBFB002208213046FDF7FA
:10424000D6FB0020A0701BE0012239464046FDF756
:10425000CEFB012249463046FDF7C9FB0122082169
:104260000BE00A4A14A1D21C6846FBF7D1FFE078A4
:1042700008B1002200E0012220213046FDF7B7FB03
:10428000284600F033F998E70008014000000020BC
:10429000000C0140E4BBBBE58AA132E8BF90E8A175
:1042A0008C0A0000D40100204125640057256400D9
:1042B0000000B4424C2564004225640008B5DFF8D4
:1042C000E080384C384E4FF400674FF480794FF45B
:1042D0007A7536A0FEF78CFF2B46022269463748D6
:1042E000FEF706FB9DF80000412806D0572811D0A4
:1042F0004C281BD0422840D04EE02A4A30A16846C4
:10430000FBF786FF207810B1FCF79CFE44E0FCF739
:1043100091FE41E0234A2BA1521C6846FBF778FF2F
:10432000607800B12848FEF71DFD35E01D4A27A141
:10433000921C6846FBF76CFFA07888B100223946D2
:104340004046FDF754FB002249463046FDF74FFB3F
:10435000002208213046FDF74AFB0020A0701BE038
:10436000012239464046FDF742FB012249463046CC
:10437000FDF73DFB012208210BE00A4A14A1D21CE3
:104380006846FBF745FFE07808B1002200E0012213
:1043900020213046FDF72BFB284600F0A7F898E7D0
:1043A0000008014000000020000C0140E4BBBBE518
:1043B0008AA133E8BF90E8A18C0A00008C0100209C
:1043C00041256400572564000000B4424C25640078
:1043D00042256400D0E9013201699A60D0E90123E5
:1043E0005A604A68824201D182684A6000220261B2
:1043F0000868401E08600868704700F108014FF027
:10440000FF32C0E90112C160016100210160704703
:1044100000210161704730B50B685A1C02D000F1D1
:10442000080202E0026904E02246546825689D42C1
:10443000FAD953684B6099608A60516008610168DD
:10444000491C016030BD42684A6093688B60936884
:104450005960916008610168491C01607047000063
:10446000BF2080F31188BFF34F8FBFF36F8F0248D7
:104470000168491C01607047640000200349086816
:10448000401E086001D180F311887047640000204D
:1044900070B500281BD0A0F108046068002816DA67
:1044A0002168002913D120F00040606000F0ACF8D2
:1044B000074D60686968084468602046FFF7E2FCC1
:1044C0002869401C2861BDE8704000F0C3B970BD88
:1044D000680000204FF0E020002101618161024965
:1044E00041610721016170473F19010010B50200C9
:1044F00009D000F089F800211046FFF773FB00F0A7
:10450000A9F9002807D104494FF080500860BFF393
:104510004F8FBFF36F8F10BD04ED00E070B50546FF
:10452000FFF79EFF214C05B92568281DFFF752FFB4
:1045300058B9E86A1E4A00EB800152F8211021B9EF
:1045400001218140206988432061A86A18B105F1E2
:104550001800FFF73FFF606A401C606220688542D8
:1045600008D11348291DA030FFF76DFF6068401C7B
:10457000606004E0A068401EA060FFF7A9FCFFF7A0
:104580007DFF2068854202D02846FFF7E7FB60697F
:1045900000280AD02068854207D106494FF0805094
:1045A0000860BFF34F8FBFF36F8F70BD24000020F2
:1045B0006402002004ED00E07CB50F480025CDE941
:1045C00000502B4680220DA10E4800F075F80A4CD1
:1045D0002C3C01280ED1BF2080F31188BFF34F8FF0
:1045E000BFF36F8F4FF0FF30A06201206061E56084
:1045F00000F034F8206B7CBD5000002049444C454D
:1046000000000000B53D00080248416B491C4163B1
:1046100070470000240000200E48416B11B10121B9
:10462000C16170470021C16101690B4AB1FA81F192
:10463000C1F11F0101EB810102EB810101F10803CE
:104640004A6852684A609A4201D152684A60D16809
:10465000016070472400002064020020094810B562
:10466000016841F47F010160016841F07F41016010
:10467000FFF730FF044900200860FBF753FD0020DE
:1046800010BD000020ED00E06400002010B5BF2048
:1046900080F31188BFF34F8FBFF36F8F00F048F89E
:1046A00018B104494FF080500860002080F3118851
:1046B00010BD000004ED00E02DE9FF5F8346DDE959
:1046C0000E87994616468A469000FFF717FC0500AC
:1046D0001DD04C20FFF712FC040015D04C21FBF735
:1046E00084FD25630021CDE90241CDE900874B46D9
:1046F000324651465846FFF78DFB2046FFF7B6FA83
:10470000012004B0BDE8F09F2846FFF7C1FE4FF03E
:10471000FF30F6E70548416919B1406B18B1002038
:1047200070470120704702207047000024000020DD
:104730002DE9F041454C0026606B28B1A069401C72
:10474000A0613046BDE8F081E5686D1CE56008D1E8
:10475000A06BE16BA163E063206A401C2062FFF75D
:10476000B7FBA16A3A488D420FD34FF0000EA16B00
:10477000096839B1A16BC968C9684A68954212D203
:10478000A26202E04FF0FF31A1622168C96A01EB29
:10479000810150F82100012800D90126E069002894
:1047A000CFD00126CDE7D1E902724B69BA60D1E9D9
:1047B00002277A605F680A1D974201D1CF685F6067
:1047C000C1F814E01F687F1E1F60D1F828C0BCF13B
:1047D000000F15D0D1E907379F60D1E907377B601B
:1047E000DCF8047001F118039F4202D10B6ACCF887
:1047F0000430C1F828E0DCF800305B1ECCF8003053
:10480000CB6A0127D4F810C09F4047EA0C07276104
:1048100003EB830300EB83035B688B609F68CF60CF
:104820009F687A609A60CA6A02EB820200EB820398
:104830004B6150F822305B1C40F82230C96A226874
:10484000D26A914293D9012691E70000240000200A
:10485000640200202DE9F04100242746FFF700FE06
:104860003F4D686B401E6863686B002872D1A86872
:104870003C4B00264FF00108F0BB6BE0D868C468E1
:10488000D4E90721A06A9160D4E907125160426817
:1048900004F118018A4201D1216A4160A6620168CF
:1048A000491E0160D4E9022160699160D4E90212D5
:1048B00051604268211D8A4201D1E268426066610E
:1048C0000268521E0260E26AD5F810C008FA02F0CF
:1048D00040EA0C00286102EB8200224A8C3A02EB8B
:1048E00080004068A060D0F808C0C4F80CC0D0F8C0
:1048F00008C0CCF8041000E012E08160E06A00EB30
:10490000800002EB8001616152F82010491C42F8DE
:104910002010E06A2968C96A884201D3C5F81C8062
:1049200018680028AAD10CB1FFF7D2FAAC693CB1E3
:10493000FFF7FEFE08B1C5F81C80641EF8D1AE6119
:10494000E86938B10849012738070860BFF34F8F7D
:10495000BFF36F8FFFF792FD3846BDE8F08100008E
:1049600024000020F002002004ED00E00102020318
:104970000405060708090A0B0C0D0E0F10100102A2
:1049800002030405060708090A0B0C0D0E0F101090
:1049900000000000000000000102030406070809EF
:1049A0000000000001020304DDDDDDDDDCBBBBDD5A
:1049B000DDDDDDDDDDDDDDDD9888888888888888BF
:1049C00077777777778888888555555666666666DF
:1049D00066666666666888888333333222222222BE
:1049E000222222222228888D7B2274656D70223A31
:1049F0007B2276616C7565223A252E31667D2C22EC
:104A000068756D69223A7B2276616C7565223A255C
:104A1000647D2C226C69676874223A7B2276616C13
:104A20007565223A25647D2C2266697265223A7B7F
:104A30002276616C7565223A25647D2C226169724B
:104A4000223A7B2276616C7565223A25737D2C2291
:104A50006C6564223A7B2276616C7565223A257317
:104A60007D2C2277696E646F77223A7B2276616CA7
:104A70007565223A25737D7D0A0000009C4A000876
:104A8000000000208800000058320008244B000875
:104A900088000020A84A00006832000800000000DA
:104AA0000000000000000000000000000000000006
:104AB00001000000100000000000000000127A0059
:104AC00000000000000000000000000000000000E6
:104AD00000000000000000000000000000000000D6
:104AE00000000000000000000000000000000000C6
:104AF00004000000000000000000000000000000B2
:104B0000AAAAAAAA000000000000000000000000FD
:104B10000000000000000000000000000000000095
:044B20000000000091
:04000005080000ED02
:00000001FF
